:1000000054EF0BF00000000000EF00F000000000D3
:0A0010000000000000000000F3D71C
:08001C000AAE029E000E120064
:100024000B820BAE1CEF00F00368026801680068E5
:080034000A360232FF0E120031
:0E003C00026A016A006A086A036A000E120076
:10004A000B840BAE30EF00F0010E036E026A016AF8
:0A005A00006A0A360232FF0E12009F
:100064000CB074EF00F00CA21AEF01F00E6A000E4F
:1000740002648BEF00F0F00E0214D8A456EF00F0E7
:10008400023A01380F0B02260138F00B016E0038DA
:100094000F0B01260038F00B006E08380F0B0026FA
:1000A4000838F00B086E0E84D89002BE6FEF00F093
:1000B40008360036013602360E2A02BE6FEF00F013
:1000C40008360036013602360E2A02BE6FEF00F003
:1000D40008360036013602360E2A0E50036410EF3D
:1000E40001F0035E0BBC08AE15EF01F0D880800E62
:1000F40008640030000E002201220222D8A015EF6D
:1001040001F0023201320032034A1AEF01F015EF16
:1001140001F001C002F000C001F008C000F0086A5C
:10012400000E0E860264C2EF00F0F00E0214D8A492
:10013400AAEF00F0023A01380F0B02260138F00B47
:10014400016E00380F0B01260038F00B006E0E8490
:10015400D89002BE6FEF00F00036013602360E2A48
:1001640002BE6FEF00F00036013602360E2A02BEE0
:100174006FEF00F00036013602360E2A6FEF00F002
:1001840001C002F000C001F0006A000E0E960E8855
:100194000264EFEF00F0F00E0214D8A4DAEF00F0DE
:1001A400023A01380F0B02260138F00B016E0E845F
:1001B400D89002BE6FEF00F0013602360E2A02BE5E
:1001C4006FEF00F0013602360E2A02BE6FEF00F028
:1001D400013602360E2A6FEF00F001C002F0016A08
:1001E400000E0E8602641FEF01F0F00E0214D8A474
:1001F400FEEF00F0023A0E84D89002BE6FEF00F0DA
:1002040002360E2A02BE6FEF00F002360E2A02BE3C
:100214006FEF00F002360E2A6FEF00F0010E0C6E45
:1002240012DF22EF01F0020E0C6EF6DE22EF01F077
:10023400040E0C6EF5DE22EF01F0080E0C6EFCDEEF
:020244001200A6
:100246000B800BAE2FEF01F0026A0AAEFF0E026EB4
:0C025600016E006E0A360232FF0E12002C
:10026200025006180E6E086A096A0B6A0350076488
:1002720024EF02F006500A6E068E028E03500B6EB9
:100282000750036E000E0B6474EF01F00B50075E13
:10029200D8B415EF02F0070E0764E3EF01F0075E32
:1002A20000C008F001C000F002C001F0026A074E6F
:1002B20015EF02F00764B8EF01F0075E00C008F026
:1002C20001C000F0016A074E15EF02F0076496EFD5
:1002D20001F0075E00C008F0006A074E15EF02F059
:1002E20007647DEF01F00AC002F005C001F004C00E
:1002F20000F0086A3EEF03F0030E076488EF01F096
:10030200075E08380F0B086E074E15EF02F0D89003
:100312000832074E15EF02F0D8900832074E15EF5B
:1003220002F0D890083215EF02F0030E0764A7EF2F
:1003320001F0075E08380F0B086E0038F00B082634
:1003420000380F0B006E074E15EF02F0D890003206
:100352000832074E15EF02F0D89000320832074EED
:1003620015EF02F0D8900032083215EF02F0030EBA
:100372000764CFEF01F0075E08380F0B086E0038F4
:10038200F00B082600380F0B006E0138F00B002628
:1003920001380F0B016E074E15EF02F0D8900132B3
:1003A20000320832074E15EF02F0D89001320032C7
:1003B2000832074E15EF02F0D890013200320832AF
:1003C20015EF02F0030E076400EF02F0075E083833
:1003D2000F0B086E0038F00B082600380F0B006E6A
:1003E2000138F00B002601380F0B016E0238F00BBA
:1003F200012602380F0B026E074E15EF02F0D8905D
:100402000232013200320832074E15EF02F0D89064
:100412000232013200320832074E15EF02F0D89054
:100422000232013200320832096A000E0EAE09EFC2
:1004320003F0081E001E011E021E082A00220122CD
:10044200022209EF03F00750D8A42AEF02F03EEF90
:1004520003F0096A02C00AF0028E068E0750035C9E
:10046200076ED8B4FCEF02F0070E0764CAEF02F081
:10047200075E0450096E0550046E0650056E066A4A
:10048200074EFCEF02F0070E07649FEF02F0075ED3
:100492000450096E0550046E056A074EFCEF02F027
:1004A200070E07647DEF02F0075E0450096E046ACE
:1004B200074EFCEF02F0070E076464EF02F00AC079
:1004C20002F03EEF03F0030E07646FEF02F0075EE7
:1004D20009380F0B096E074EFCEF02F0D890093273
:1004E200074EFCEF02F0D8900932074EFCEF02F003
:1004F200D8900932FCEF02F0030E07648EEF02F08F
:10050200075E09380F0B096E0438F00B0926043810
:100512000F0B046E074EFCEF02F0D8900432093242
:10052200074EFCEF02F0D89004320932074EFCEF7E
:1005320002F0D89004320932FCEF02F0030E076495
:10054200B6EF02F0075E09380F0B096E0438F00BA4
:10055200092604380F0B046E0538F00B0426053803
:100562000F0B056E074EFCEF02F0D89005320432F5
:100572000932074EFCEF02F0D890053204320932FC
:10058200074EFCEF02F0D890053204320932FCEF3C
:1005920002F0030E0764E7EF02F0075E09380F0B63
:1005A200096E0438F00B092604380F0B046E053867
:1005B200F00B042605380F0B056E0638F00B0526E6
:1005C20006380F0B066E074EFCEF02F0D89006328B
:1005D200053204320932074EFCEF02F0D89006329F
:1005E200053204320932074EFCEF02F0D89006328F
:1005F200053204320932086A000E0EAE09EF03F02A
:10060200091E041E051E061E092A042205220622B0
:1006120009500826045000220550012206500222E9
:100622000EBE20EF03F0D8A02FEF03F0023201320A
:1006320000320832033E2FEF03F039EF03F0D8B057
:1006420034EF03F0000E081E001E011E021E082ACF
:100652000022012202220A7E34EF03F0010E0C6E08
:1006620000DD40EF03F0020E0C6EFBDC40EF03F006
:10067200040E0C6ED6DC40EF03F0000E0C6E12007E
:06068200067EEEDD120011
:100688000050086E0150006E0250016E0350026E59
:10069800036A0B6A0C6A9E0E036E0A6A02AE61EF69
:1006A80003F0081E001E011E021E082AD8B4002AE4
:1006B800D8B4012AD8B4022A0A8E020E0C6ECEDCF7
:0206C80012001E
:1006CA000A6A0350D8A40A800750D8A40A820A509A
:1006DA00D8B4C8EF03F0030AD8B481EF03F00AB024
:1006EA007CEF03F006AEC6EF03F0C4EF03F002AEF0
:1006FA00C4EF03F0C6EF03F00250800B0A6E029EAD
:10070A000650800B069E0A18D8B492EF03F00A50DE
:10071A00D8B4C4EF03F0C6EF03F00750035CD8B4B3
:10072A009CEF03F0D8A0B8EF03F0BEEF03F0065039
:10073A00025CD8B4A6EF03F0D8A0B8EF03F0BEEF7E
:10074A0003F00550015CD8B4B0EF03F0D8A0B8EFBD
:10075A0003F0BEEF03F00450005CD8B4C8EF03F016
:10076A00D8B0BEEF03F00A52D8B4C6EF03F0C4EF14
:10077A0003F00A52D8B4C4EF03F0C6EF03F0D880EE
:0E078A001200D8901200D880D88412001200FD
:100798000B6A0C6A086A0350D8B450EF04F002C020
:1007A8000AF0028E9E0E035E03AE40EF04F0036C67
:1007B800080E035CD8A00DEF04F0036E083600C0E5
:1007C80008F001C000F002C001F0026A080E035CE4
:1007D800D8A00DEF04F0036E083600C008F001C081
:1007E80000F0016A080E035CD8A00DEF04F0036E58
:1007F800083600C008F0006A080E035CD8A00DEFA8
:1008080004F0036E0836086A0350D8A4D89019EF8C
:1008180004F00350D8B419EF04F0D8900232013232
:1008280000320832032E11EF04F00BBC08A02AEFA7
:1008380004F0D8A02AEF04F0082AD8B4002AD8B4C3
:10084800012AD8B4022A02BE54EF04F00AAE50EFCF
:1008580004F0021E011E001E081E082AD8B4002A31
:10086800D8B4012AD8B4022A50EF04F0026A016A07
:10087800006A086A50EF04F00B800BAE5AEF04F0E0
:10088800026A0AAE5AEF04F0026E016E006E086E3C
:100898000A3602325AEF04F00C6A000E5BEF04F0DD
:1008A800010E0C6E000ECBDC5BEF04F0FF0E025065
:1008B800036E0150026E0050016E0850006E120067
:1008C800086A096A000E07620364E9EF04F002503F
:1008D80006180A6E075003267E0ED8A07AEF04F099
:1008E800035ED8B0EEEF04F07EEF04F0035ED8A00C
:1008F800F3EF04F0028E068E02C00EF001C00BF07A
:1009080000C00DF000500402F4CF0CF001500502B5
:10091800F4CF00F0F3CF08F00402F3500C26F450A3
:100928000822000E00220D500502F3500C26F45048
:100938000822000E002202500402F3500826F45048
:10094800002202500502016A000E0122F35000261F
:10095800F45001220D500602F3500826F4500022EC
:10096800026A000E012202220B500602F3500026F2
:10097800F4500122000E02220E500602F350012606
:10098800F450022202BED1EF04F0083600360136D8
:1009980002360306D8B4F3EF04F0E4EF04F0D8808D
:1009A800800E08640030000E002201220222D8A026
:1009B800E4EF04F0023201320032034AEEEF04F0B1
:1009C8000AAE029E000EF6EF04F0010E1EEC00F0D7
:1009D800F6EF04F0020E12EC00F0F6EF04F0040E4D
:0609E80025EC00F01200F6
:0809EE000B6A0B86FF0E1200DC
:1009F60056C600F0016A026A036AFF0E0016000E70
:100A0600011600C05BF601C05CF67F0E005C026E4C
:100A1600000E0158036E02C05BF603C05CF6800E42
:100A26000318006E800E005C02E1000E025C21E2FB
:100A3600046A056A066A076A53C600F054C601F0DE
:100A460055C602F056C603F03DDE010ED8B0000EC4
:100A5600006E005209E0000E006E000E016E800E60
:100A6600026E7F0E036E1200006A016A026A036A52
:100A760012000601000E006E5C51005C02E15B5143
:100A8600180809E253C600F054C601F055C602F034
:100A960056C603F0120053C600F054C601F055C600
:100AA60002F056C603F075DEECDD00C057F601C055
:100AB60058F602C059F603C05AF600C004F001C049
:100AC60005F002C006F003C007F053C600F054C696
:100AD60001F055C602F056C603F0F4DD010ED8B09B
:100AE600000E006E005212E0000E046E000E056E3F
:100AF600000E066E7F0E076E57C600F058C601F050
:100B060059C602F05AC603F0B9DD120057C600F006
:0E0B160058C601F059C602F05AC603F012008C
:100B24005AC600F05BC601F0000E06015BBFFF0E63
:100B3400026E036E0036009001360236033600362C
:100B4400009001360236033657510024F66E585190
:100B54000120F76E59510220F86E0900F5CF5CF6BA
:100B64000900F5CF5DF60900F5CF5EF60900F5CF73
:100B74005FF65A515B1148E053C600F054C601F0C9
:100B840055C602F056C603F05CC604F05DC605F017
:100B94005EC606F05FC607F095DE010E5A5F000ED2
:100BA4005B5B5AC604F05BC605F0000E5BBFFF0E2C
:100BB400066E076E0436049005360636073604368C
:100BC400049005360636073657510424F66E5851FC
:100BD4000520F76E59510620F86E0900F5CF04F090
:100BE4000900F5CF05F00900F5CF06F00900F5CFAF
:100BF40007F031EC01F000C05CF601C05DF602C004
:100C04005EF603C05FF6B5D75CC600F05DC601F0C2
:0A0C14005EC602F05FC603F0120096
:100C1E000450000A12E10550000A0FE10650000AC6
:100C2E000CE10750000A09E1FF0E006EFF0E016E87
:100C3E007F0E026EFF0E036E1200086A096A0750DD
:100C4E00D8B4BAEF06F00350D8B4BEEF06F0025097
:100C5E0006180A6E028E068E0E6A02C008F001C0D9
:100C6E000CF000C00DF004500D5E0550D8A0053CF0
:100C7E000C5E0650D8A0063C085E086A0C6A0D6A27
:100C8E00D8A051EF06F0D89002320132003208326D
:100C9E00010E0E6E0750035ED8A05EEF06F07E0EBC
:100CAE000E240326D8B0C3EF06F064EF06F07E0ED6
:100CBE000E240326D8A0C8EF06F0180E0B6E0D36C4
:100CCE000C3608360036013602360E360450005EFB
:100CDE000550D8A0053C015E0650D8A0063C025E29
:100CEE0006340E120EA07FEF06F00D808AEF06F08E
:100CFE00045000260550D8B0053C01260650D8B049
:100D0E00062802260D900B2E66EF06F0B0EF06F0C9
:100D1E00D8900036013602360E360450005E05506D
:100D2E00D8A0053C015E0650D8A0063C025E0634F3
:100D3E000E10010B0D26D8B00C2AD8B4082AD8A450
:100D4E00B0EF06F008320C320D32032AD8B4C3EFDE
:100D5E0006F00AAE089E0850026E0C50016E0D5041
:100D6E00006ECBEF06F0010E3BDECBEF06F0020E6F
:100D7E001EEC00F0CBEF06F0040E12EC00F0CBEF01
:0A0D8E0006F0080E25EC00F012003C
:0C0D9800240E0D6E0D2EFED70000120080
:100DA4000C6A0E6A0250D8A4EBEF06F001C002F000
:100DB40000C001F0006A0E860250D8A4EBEF06F0E2
:100DC40001C002F0016A0E960E880250D8B4FDEFFD
:100DD40006F00E50035ED8A4D8A003EF07F0D89015
:100DE40002BE09EF07F0003601360236032EF2EF99
:100DF40006F003EF07F0010E0C6E1EEC00F00DEF91
:100E040007F0020E0C6E25EC00F00DEF07F0040E57
:080E14000C6E0EEC00F0120060
:100E1C000601526B046A056A066A076A4AC600F044
:100E2C004BC601F04CC602F04DC603F048DC010E77
:100E3C00D8B0000E006E005203E04C7F010E526FD2
:100E4C004AC600F04BC601F04CC602F04DC603F08A
:100E5C00830E046EF90E056E220E066E7C0E076E66
:100E6C002DDD00C04AF601C04BF602C04CF603C0A3
:100E7C004DF600C053F601C054F602C055F603C03F
:100E8C0056F6B3DD00C004F001C005F002C006F058
:100E9C0003C007F04AC600F04BC601F04CC602F086
:100EAC004DC603F041EC03F0000E046E000E056E0F
:100EBC00000E066E810E076E01DD00C04AF601C001
:100ECC004BF602C04CF603C04DF600C004F001C056
:100EDC0005F002C006F003C007F0000E006E000E15
:100EEC00016E000E026E800E036E65EC03F0010EB7
:100EFC00D8B0000E006E005220E0000E046E000E02
:100F0C00056E000E066E800E076E4AC600F04BC6CC
:100F1C0001F04CC602F04DC603F041EC03F000C0EA
:100F2C004AF601C04BF602C04CF603C04DF6060162
:100F3C005253010ED8A4000E526F4AC604F04BC691
:100F4C0005F04CC606F04DC607F0000E006E000E04
:100F5C00016E000E026E7F0E036E65EC03F0010E47
:100F6C00D8B0000E006E00521AE04AC604F04BC610
:100F7C0005F04CC606F04DC607F0000E006E000ED4
:100F8C00016E000E026E800E036E41EC03F000C089
:100F9C004AF601C04BF602C04CF603C04DF60601F2
:100FAC004AC600F04BC601F04CC602F04DC603F029
:100FBC004AC604F04BC605F04CC606F04DC607F009
:100FCC007DDC00C04EF601C04FF602C050F603C0E7
:100FDC0051F600C053F601C054F602C055F603C0DA
:100FEC0056F6E00E576F1E0E586F000E596F040E1A
:100FFC005A6F000E5B6F90DD4AC604F04BC605F0CD
:10100C004CC606F04DC607F059DC00C04AF601C0CC
:10101C004BF602C04CF603C04DF64EC653F64FC607
:10102C0054F650C655F651C656F6F40E576F1E0EB2
:10103C00586F000E596F030E5A6F000E5B6F6CDD0C
:10104C0000C004F001C005F002C006F003C007F0B8
:10105C004AC600F04BC601F04CC602F04DC603F078
:10106C00D8DD00C04AF601C04BF602C04CF603C0F6
:10107C004DF6060152530DE0000E4A19006E000E9B
:10108C004B19016E800E4C19026E000E4D19036E39
:10109C0012004AC600F04BC601F04CC602F04DC619
:0410AC0003F012003B
:1010B00003500718D8A46CEF08F002500618D8A403
:1010C0006CEF08F001500518D8A46CEF08F0005040
:0E10D0000418D8B4D8841200D894120012006C
:1010DE004A0E046E060E056E030E0424E96E000E13
:1010EE000520EA6E7E0EEE5C006E016A000E015A5D
:1010FE004EC6E1FF4FC6E2FF00C0E6FF01C0E6FFAD
:10110E00030E0424E16E000E0520E26E7E0EE66EE6
:10111E004AC600F04BC601F04CC602F04DC603F0B5
:02112E001200AD
:101130004A0E0601506F060E516F030E5025D96EF0
:10114000000E5121DA6EDE504E25016E000E4F2149
:10115000026E01C04EF602C04FF6800E0218006EFD
:10116000800E005C02E1000E015C05E2006A016A8B
:10117000026A036A1200800E006E800E4F19005C36
:1011800002E14E51FF0826E2046A056A066A076A10
:101190004AC600F04BC601F04CC602F04DC603F043
:1011A00065EC03F0010ED8B0000E006E005209E0AD
:1011B000FF0E006EFF0E016EFF0E026EFF0E036E3D
:1011C0001200FF0E006EFF0E016E7F0E026EFF0E0C
:1011D000036E1200030E5025E16E000E5121E26EE7
:1011E0004EC6E6FF4AC600F04BC601F04CC602F000
:0611F0004DC603F01200E1
:1011F600086A096A100E0C6E013408360936045066
:10120600085E0550D8A0053C095ED8B007D004504A
:1012160008260550D8B0053C0926D8900036013678
:061226000C2EEAD71200B5
:10122C000050086E0150006E016A026A036A0B6A74
:10123C000C6A960E036E0A6A00C001F008C000F03A
:08124C00086A026AA9DD120024
:101254000900F5CFE6FF0006FBE10106F9E1120003
:10126400C26A070EC012C08E3BC600F00036009062
:10127400003600900050C212C2808CDDC282C2A22D
:1012840001D0FDD7C4CF01F0006AC3500012000E94
:061294000112C2901200DD
:10129A000B6A0A6A096A00500402F4CF09F0F3CF14
:1012AA0008F001500502F4CF0BF0F3CF0AF000501A
:1012BA000502F3500926F4500A22E86A0B2201506B
:1012CA000402F3500926F4500A22E86A0B2208C0E5
:1012DA0000F009C001F00AC002F00BC003F01200CE
:1012EA00000E06013C1902E1000E3B1903E1006AF7
:1012FA00016A12003B513D5D006E3C513E59016E40
:02130A001200CF
:10130C003BC604F03CC605F03DC606F03EC607F0F1
:10131C00006A016A026A036A65EC03F0000ED8B039
:10132C00010E006E005205E0006A016A026A036A4F
:10133C0012003BC63FF63CC640F63DC641F63EC6E3
:10134C0042F6000E046E000E056E000E066E7F0E49
:10135C00076E3BC600F03CC601F03DC602F03EC62F
:10136C0003F065EC03F0010ED8B0000E006E0052D5
:10137C0019E03FC604F040C605F041C606F042C66F
:10138C0007F0000E006E000E016E000E026E7F0E56
:10139C00036E3FDC00C03FF601C040F602C041F6D0
:1013AC0003C042F63FC64AF640C64BF641C64CF661
:1013BC0042C64DF6480E06014E6F060E4F6F89DE83
:1013CC0000C03FF601C040F602C041F603C042F631
:1013DC0000C04AF601C04BF602C04CF603C04DF6F5
:1013EC0048C64EF649C64FF64F334E334F9F4FBD4E
:1013FC004F8F98DE00C03FF601C040F602C041F6A8
:10140C0003C042F6000E046E000E056E000E066E52
:10141C007F0E076E3BC600F03CC601F03DC602F0E5
:10142C003EC603F065EC03F0010ED8B0000E006E62
:10143C0000521AE03FC604F040C605F041C606F063
:10144C0042C607F0000E006E000E016E000E026E1A
:10145C007F0E036E0FEC06F000C03FF601C040F6A5
:10146C0002C041F603C042F6140E0601476F3FC698
:10147C0004F040C605F041C606F042C607F03BC674
:10148C0000F03CC601F03DC602F03EC603F00FEC86
:10149C0006F03FC604F040C605F041C606F042C651
:1014AC0007F031EC01F0000E046E000E056E000E1C
:1014BC00066E800E076E0FEC06F000C043F601C0FE
:1014CC0044F602C045F603C046F63FC604F040C6DB
:1014DC0005F041C606F042C607F0E4DD010ED8A4C3
:1014EC00000E006E005201E00CD043C63FF644C61D
:1014FC0040F645C641F646C642F606014707475335
:10150C00B6E13FC600F040C601F041C602F042C64B
:04151C0003F01200C6
:1015200023D0030E066E000E076E49D0040E066E21
:10153000000E076E44D0050E066E000E076E3FD0FB
:10154000060E066E000E076E3AD0070E066E000EEF
:10155000076E35D0080E066E000E076E30D0090EED
:10156000066E000E076E2BD0000E06013E1902E13A
:10157000080E3D19D6E0000E3E1902E1100E3D198D
:10158000D5E0000E3E1902E1200E3D19D4E0000E18
:101590003E1902E1400E3D19D3E0000E3E1902E172
:1015A000800E3D19D2E03E51010A02E1000E3D19C4
:1015B000D1E03E51020A02E1000E3D19D0E0026A7C
:1015C000036A046A056A0750055C02E10650045C80
:1015D00014E2023602900336010E3B15006E3CC643
:1015E00001F0000E011600500226015003223C3388
:1015F0003B333C9F044A052AE6D702C000F003C0F3
:0416000001F01200E3
:101604003BC604F03CC605F03DC606F03EC607F0F6
:10161400DB0E006E0F0E016E490E026E800E036E1D
:1016240065EC03F0010ED8B0000E006E00521DE010
:10163400E40E046ECB0E056E160E066E810E076E5A
:101644003BC600F03CC601F03DC602F03EC603F0C6
:1016540041EC03F000C04AF601C04BF602C04CF660
:1016640003C04DF60EEC07F012003BC600F03CC67A
:1016740001F03DC602F03EC603F0DB0E046E0F0E11
:10168400056E490E066E7F0E076E31EC01F000C048
:101694004AF601C04BF602C04CF603C04DF60EEC00
:0416A40007F0120039
:1016A800DB0E06012D6F0F0E2E6F490E2F6F7A0E6F
:1016B800306F0E0EC16E010E926E936A806A816A57
:1016C800FF0E816E216B226B000E225D02E1800EFF
:1016D800215D29E221C600F022C601F00036009003
:1016E8000136003600900136150E0024316F000EC9
:1016F8000120326F3B6BB2DD006A016A93DD31C6AF
:10170800E1FF32C6E2FF00C0E6FF01C0E6FF02C00B
:10171800E6FF03C0E6FF530E0D6E0D2EFED7060141
:10172800214B222BD1D7816A216B226B000E225DBF
:1017380002E1800E215D34E221C63BF622C63CF66A
:10174800800E3D6F000E3E6FE7DE00C002F001C064
:1017580003F0023602900336023602900336150E65
:101768000224E16E020E0320E26E21C600F022C6BA
:1017780001F0003600900136003600900136150E53
:101788000024E96E000E0120EA6EEECFE6FFEECFF0
:10179800E6FFEECFE6FFEECFE6FF214B222BC6D7C2
:1017A800216B226B000E225D02E1400E215DD8B054
:1017B80086D021C600F022C601F00036009001361E
:1017C800003600900136150E0024316F040E0120FA
:1017D800326F21C600F022C601F0003600900136B3
:1017E80021DDDB0E046E0F0E056E490E066E800EAF
:1017F800076E64EC04F0000E046E000E056E000E19
:10180800066E860E076E0FEC06F000C03BF601C0B0
:101818003CF602C03DF603C03EF6F0DE31C6E1FFFD
:1018280032C6E2FF00C0E6FF01C0E6FF02C0E6FFE5
:1018380003C0E6FF21C600F022C601F00036009082
:101848000136003600900136150E0024316F050E62
:101858000120326F21C600F022C601F00036009048
:101868000136E0DCDB0E046E0F0E056E490E066EC7
:10187800800E076E64EC04F0000E046E000E056E18
:10188800000E066E860E076E0FEC06F000C04AF6D4
:1018980001C04BF602C04CF603C04DF60EEC07F043
:1018A80031C6E1FF32C6E2FF00C0E6FF01C0E6FF35
:1018B80002C0E6FF03C0E6FF214B222B73D7800E40
:1018C800296F000E2A6F000E2A5D02E1020E295DC3
:1018D800D8A0F6D129C604F02AC605F0800E006EFD
:1018E800000E016E84DC00C02BF601C02CF629C660
:1018F80025F62AC626F626332533269F00C027F666
:1019080001C028F6273727912837236B246B2C51E1
:10191800245D02E12B51235DD8B0A5D1216B226B48
:101928002651225D02E12551215DD8B099D121C609
:1019380000F022C601F027C604F028C605F0A9DC8D
:1019480000502325056E01502421066E05C002F0C3
:1019580006C003F0023602900336023602900336C0
:10196800150E0224E96E020E0320EA6EEECF15F67C
:10197800EECF16F6EECF17F6EECF18F62B5123253D
:10198800026E2C512421036E00500224046E015073
:101998000320056E04C000F005C001F00036009079
:1019A8000136003600900136150E0024E96E020E4D
:1019B8000120EA6EEECF31F6EECF32F6EECF33F6F7
:1019C800EECF34F623C600F024C601F029C604F091
:1019D8002AC605F05EDC00C003F001C004F0043242
:1019E8000332049E03C000F004C001F000360090EA
:1019F8000136003600900136150E0024D96E040E0B
:101A08000120DA6ED9CFE9FFDACFEAFFEECF00F096
:101A1800EECF01F0EECF02F0EECF03F031C604F0C6
:101A280032C605F033C606F034C607F064EC04F09D
:101A380000C019F601C01AF602C01BF603C01CF656
:101A480023C63BF624C63CF62BC63DF62CC63EF60E
:101A580048DC2B510024316F2C510120326F21C6F4
:101A680000F022C601F027C604F028C605F011DCF4
:101A780000C039F601C03AF639513125036E3A51A2
:101A88003221046E03C000F004C001F0003600905B
:101A98000136003600900136150E0024E96E020E5C
:101AA8000120EA6EEECF31F6EECF32F6EECF33F606
:101AB800EECF34F623C600F024C601F029C604F0A0
:101AC8002AC605F04DEC09F000C003F001C004F08F
:101AD80004320332049E03C000F004C001F0003653
:101AE80000900136003600900136150E0024D96E9C
:101AF800050E0120DA6ED9CFE9FFDACFEAFFEECF83
:101B080000F0EECF01F0EECF02F0EECF03F031C6D9
:101B180004F032C605F033C606F034C607F064ECAC
:101B280004F000C035F601C036F602C037F603C02F
:101B380038F635C61DF636C61EF637C61FF638C641
:101B480020F639512325036E3A512421046E03C02F
:101B580000F004C001F00036009001360036009015
:101B68000136150E0024316F000E0120326F15C6A4
:101B780000F016C601F017C602F018C603F019C621
:101B880004F01AC605F01BC606F01CC607F031ECB7
:101B980001F035C604F036C605F037C606F038C67B
:101BA80007F031EC01F031C6E1FF32C6E2FF00C0B8
:101BB800E6FF01C0E6FF02C0E6FF03C0E6FF2B51C7
:101BC8002325316F2C512421326F21C600F022C603
:101BD80001F027C604F028C605F04DEC09F00050C6
:101BE8003125036E01503221046E03C000F004C099
:101BF80001F0003600900136003600900136150ECF
:101C08000024316F000E0120326F19C604F01AC685
:101C180005F01BC606F01CC607F015C600F016C670
:101C280001F017C602F018C603F041EC03F01DC618
:101C380004F01EC605F01FC606F020C607F041ECEA
:101C480003F031C6E1FF32C6E2FF00C0E6FF01C083
:101C5800E6FF02C0E6FF03C0E6FF214B222B60D659
:101C6800234B242B54D6216B226B000E225D02E1FC
:101C7800800E215D21E221C600F022C601F0003667
:101C880000900136003600900136150E0024E16EF2
:101C9800020E0120E26E150E0024E96E000E0120EE
:101CA800EA6EEECFE6FFEECFE6FFEECFE6FFEECF31
:101CB800E6FF214B222BD9D72A3329332A9F03D673
:101CC800216B226B000E225D02E1800E215D40E255
:101CD80021C600F022C601F0003600900136003619
:101CE80000900136150E0024316F020E0120326F6C
:101CF80031C6E9FF32C6EAFFEECF00F0EECF01F0C1
:101D0800EECF02F0EECF03F0000E046E000E056E6B
:101D1800000E066E800E076E64EC04F0000E046E72
:101D2800000E056E000E066E860E076E0FEC06F0AE
:101D380031C6E1FF32C6E2FF00C0E6FF01C0E6FFA0
:101D480002C0E6FF03C0E6FF0601214B222BBAD7EB
:101D5800010E216F000E226F000E225D02E1400E7F
:101D6800215DD8B0B6D021C600F022C601F00036F9
:101D780000900136003600900136150E0024396FA8
:101D8800020E01203A6F000E3B6F000E3C6F000EF2
:101D98003D6F800E3E6F86EC09F0000E046E000E5B
:101DA800056E000E066E800E076E0FEC06F000C082
:101DB80035F601C036F602C037F603C038F621C63C
:101DC80000F022C601F0003600900136003600907F
:101DD8000136150E0024D96E020E0120DA6ED9CF15
:101DE800E9FFDACFEAFFEECF00F0EECF01F0EECF59
:101DF80002F0EECF03F000C004F001C005F002C00D
:101E080006F003C007F064EC04F000C031F601C02E
:101E180032F602C033F603C034F6060121518008B9
:101E2800036E22C604F0000E045603C000F004C07E
:101E380001F0003600900136003600900136150E8C
:101E48000024D96E020E0120DA6ED9CFE9FFDACF6D
:101E5800EAFFEECF00F0EECF01F0EECF02F0EECFCA
:101E680003F000C004F001C005F002C006F003C092
:101E780007F064EC04F031C604F032C605F033C64E
:101E880006F034C607F031EC01F000C03BF601C0A3
:101E98003CF602C03DF603C03EF686EC09F035C6B6
:101EA80004F036C605F037C606F038C607F064EC0D
:101EB80004F039C6E1FF3AC6E2FF00C0E6FF01C000
:101EC800E6FF02C0E6FF03C0E6FF0601214B222B16
:081ED80043D764EF0BF0FFD7C4
:101EE000ECF34A903595958F17C15C8BFDDBED8641
:041EF00072B3338016
:101EF4002B3401907F9D308BE7FF59850000007FD4
:020000040030CA
:0E000000040E3F1EFF0381FF0FC00FE00F40F4
:00000001FF
