:10000000DDEF0EF00000000000EF00F00000000047
:0A0010000000000000000000F3D71C
:10001C000B820BAE18EF00F00368026801680068F1
:08002C000A360232FF0E120039
:0E003400026A016A006A086A036A000E12007E
:100042000B840BAE2CEF00F0010E036E026A016A04
:0A005200006A0A360232FF0E1200A7
:08005C000AAE029E000E120024
:100064000CB074EF00F00CA21AEF01F00E6A000E4F
:1000740002648BEF00F0F00E0214D8A456EF00F0E7
:10008400023A01380F0B02260138F00B016E0038DA
:100094000F0B01260038F00B006E08380F0B0026FA
:1000A4000838F00B086E0E84D89002BE6FEF00F093
:1000B40008360036013602360E2A02BE6FEF00F013
:1000C40008360036013602360E2A02BE6FEF00F003
:1000D40008360036013602360E2A0E50036410EF3D
:1000E40001F0035E0BBC08AE15EF01F0D880800E62
:1000F40008640030000E002201220222D8A015EF6D
:1001040001F0023201320032034A1AEF01F015EF16
:1001140001F001C002F000C001F008C000F0086A5C
:10012400000E0E860264C2EF00F0F00E0214D8A492
:10013400AAEF00F0023A01380F0B02260138F00B47
:10014400016E00380F0B01260038F00B006E0E8490
:10015400D89002BE6FEF00F00036013602360E2A48
:1001640002BE6FEF00F00036013602360E2A02BEE0
:100174006FEF00F00036013602360E2A6FEF00F002
:1001840001C002F000C001F0006A000E0E960E8855
:100194000264EFEF00F0F00E0214D8A4DAEF00F0DE
:1001A400023A01380F0B02260138F00B016E0E845F
:1001B400D89002BE6FEF00F0013602360E2A02BE5E
:1001C4006FEF00F0013602360E2A02BE6FEF00F028
:1001D400013602360E2A6FEF00F001C002F0016A08
:1001E400000E0E8602641FEF01F0F00E0214D8A474
:1001F400FEEF00F0023A0E84D89002BE6FEF00F0DA
:1002040002360E2A02BE6FEF00F002360E2A02BE3C
:100214006FEF00F002360E2A6FEF00F0010E0C6E45
:100224000EDF22EF01F0020E0C6E16DF22EF01F05A
:10023400040E0C6EF1DE22EF01F0080E0C6EF8DEF7
:020244001200A6
:100246000B800BAE2FEF01F0026A0AAEFF0E026EB4
:0C025600016E006E0A360232FF0E12002C
:10026200025006180E6E086A096A0B6A0350076488
:1002720024EF02F006500A6E068E028E03500B6EB9
:100282000750036E000E0B6474EF01F00B50075E13
:10029200D8B415EF02F0070E0764E3EF01F0075E32
:1002A20000C008F001C000F002C001F0026A074E6F
:1002B20015EF02F00764B8EF01F0075E00C008F026
:1002C20001C000F0016A074E15EF02F0076496EFD5
:1002D20001F0075E00C008F0006A074E15EF02F059
:1002E20007647DEF01F00AC002F005C001F004C00E
:1002F20000F0086A3EEF03F0030E076488EF01F096
:10030200075E08380F0B086E074E15EF02F0D89003
:100312000832074E15EF02F0D8900832074E15EF5B
:1003220002F0D890083215EF02F0030E0764A7EF2F
:1003320001F0075E08380F0B086E0038F00B082634
:1003420000380F0B006E074E15EF02F0D890003206
:100352000832074E15EF02F0D89000320832074EED
:1003620015EF02F0D8900032083215EF02F0030EBA
:100372000764CFEF01F0075E08380F0B086E0038F4
:10038200F00B082600380F0B006E0138F00B002628
:1003920001380F0B016E074E15EF02F0D8900132B3
:1003A20000320832074E15EF02F0D89001320032C7
:1003B2000832074E15EF02F0D890013200320832AF
:1003C20015EF02F0030E076400EF02F0075E083833
:1003D2000F0B086E0038F00B082600380F0B006E6A
:1003E2000138F00B002601380F0B016E0238F00BBA
:1003F200012602380F0B026E074E15EF02F0D8905D
:100402000232013200320832074E15EF02F0D89064
:100412000232013200320832074E15EF02F0D89054
:100422000232013200320832096A000E0EAE09EFC2
:1004320003F0081E001E011E021E082A00220122CD
:10044200022209EF03F00750D8A42AEF02F03EEF90
:1004520003F0096A02C00AF0028E068E0750035C9E
:10046200076ED8B4FCEF02F0070E0764CAEF02F081
:10047200075E0450096E0550046E0650056E066A4A
:10048200074EFCEF02F0070E07649FEF02F0075ED3
:100492000450096E0550046E056A074EFCEF02F027
:1004A200070E07647DEF02F0075E0450096E046ACE
:1004B200074EFCEF02F0070E076464EF02F00AC079
:1004C20002F03EEF03F0030E07646FEF02F0075EE7
:1004D20009380F0B096E074EFCEF02F0D890093273
:1004E200074EFCEF02F0D8900932074EFCEF02F003
:1004F200D8900932FCEF02F0030E07648EEF02F08F
:10050200075E09380F0B096E0438F00B0926043810
:100512000F0B046E074EFCEF02F0D8900432093242
:10052200074EFCEF02F0D89004320932074EFCEF7E
:1005320002F0D89004320932FCEF02F0030E076495
:10054200B6EF02F0075E09380F0B096E0438F00BA4
:10055200092604380F0B046E0538F00B0426053803
:100562000F0B056E074EFCEF02F0D89005320432F5
:100572000932074EFCEF02F0D890053204320932FC
:10058200074EFCEF02F0D890053204320932FCEF3C
:1005920002F0030E0764E7EF02F0075E09380F0B63
:1005A200096E0438F00B092604380F0B046E053867
:1005B200F00B042605380F0B056E0638F00B0526E6
:1005C20006380F0B066E074EFCEF02F0D89006328B
:1005D200053204320932074EFCEF02F0D89006329F
:1005E200053204320932074EFCEF02F0D89006328F
:1005F200053204320932086A000E0EAE09EF03F02A
:10060200091E041E051E061E092A042205220622B0
:1006120009500826045000220550012206500222E9
:100622000EBE20EF03F0D8A02FEF03F0023201320A
:1006320000320832033E2FEF03F039EF03F0D8B057
:1006420034EF03F0000E081E001E011E021E082ACF
:100652000022012202220A7E34EF03F0010E0C6E08
:1006620000DD40EF03F0020E0C6EFBDC40EF03F006
:10067200040E0C6ED2DC40EF03F0000E0C6E120082
:100682000C6A0E6A0250D8A45AEF03F001C002F0BD
:1006920000C001F0006A0E860250D8A45AEF03F09F
:1006A20001C002F0016A0E960E880250D8B46CEFB7
:1006B20003F00E50035ED8A4D8A071EF03F0D890D7
:1006C20002BE76EF03F0003601360236032E61EFEA
:1006D20003F071EF03F0010E0C6EABDC79EF03F067
:1006E200020E0C6EADDC79EF03F0040E0C6EB5DC7D
:0206F2001200F4
:1006F400086A096A000E07620364FFEF03F0025000
:1007040006180A6E075003267E0ED8A090EF03F059
:10071400035ED8B003EF04F094EF03F0035ED8A0B7
:1007240007EF04F0028E068E02C00EF001C00BF03B
:1007340000C00DF000500402F4CF0CF0015005028B
:10074400F4CF00F0F3CF08F00402F3500C26F45079
:100754000822000E00220D500502F3500C26F4501E
:100764000822000E002202500402F3500826F4501E
:10077400002202500502016A000E0122F3500026F5
:10078400F45001220D500602F3500826F4500022C2
:10079400026A000E012202220B500602F3500026C8
:1007A400F4500122000E02220E500602F3500126DC
:1007B400F450022202BEE7EF03F008360036013699
:1007C40002360306D8B407EF04F0FAEF03F0D8803A
:1007D400800E08640030000E002201220222D8A0FC
:1007E400FAEF03F0023201320032034A03EF04F05D
:1007F4000AAE029E000E09EF04F0010E19DC09EFA7
:1008040004F0020E09DC09EF04F0040E18DC1200F7
:080814000B6A0B86FF0E1200B7
:06081C00067E21DD120042
:100822000A6A0350D8A40A800750D8A40A820A5040
:10083200D8B474EF04F0030AD8B42DEF04F00AB070
:1008420028EF04F006AE72EF04F070EF04F002AE8F
:1008520070EF04F072EF04F00250800B0A6E029EF9
:100862000650800B069E0A18D8B43EEF04F00A50D8
:10087200D8B470EF04F072EF04F00750035CD8B400
:1008820048EF04F0D8A064EF04F06AEF04F00650D9
:10089200025CD8B452EF04F0D8A064EF04F06AEF1F
:1008A20004F00550015CD8B45CEF04F0D8A064EF0A
:1008B20004F06AEF04F00450005CD8B474EF04F062
:1008C200D8B06AEF04F00A52D8B472EF04F070EFB5
:1008D20004F00A52D8B470EF04F072EF04F0D8803A
:0E08E2001200D8901200D880D88412001200A4
:1008F0000B6A0C6A086A0350D8B4FCEF04F002C01B
:100900000AF0028E9E0E035E03AEECEF04F0036C61
:10091000080E035CD8A0B9EF04F0036E083600C0DF
:1009200008F001C000F002C001F0026A080E035C8A
:10093000D8A0B9EF04F0036E083600C008F001C07B
:1009400000F0016A080E035CD8A0B9EF04F0036E52
:10095000083600C008F0006A080E035CD8A0B9EFA2
:1009600004F0036E0836086A0350D8A4D890C5EF87
:1009700004F00350D8B4C5EF04F0D890023201322D
:1009800000320832032EBDEF04F00BBC08A0D6EFF6
:1009900004F0D8A0D6EF04F0082AD8B4002AD8B4BE
:1009A000012AD8B4022A02BE00EF05F00AAEFCEF1D
:1009B00004F0021E011E001E081E082AD8B4002AD8
:1009C000D8B4012AD8B4022AFCEF04F0026A016A02
:1009D000006A086AFCEF04F00B800BAE06EF05F02E
:1009E000026A0AAE06EF05F0026E016E006E086E36
:1009F0000A36023206EF05F00C6A000E07EF05F02A
:100A0000010E0C6E000E1FDC07EF05F0FF0E02500A
:100A1000036E0150026E0050016E0850006E12000D
:100A20000050086E0150006E0250016E0350026EBD
:100A3000036A0B6A0C6A9E0E036E0A6A02AE2DEF01
:100A400005F0081E001E011E021E082AD8B4002A46
:100A5000D8B4012AD8B4022A0A8E020E0C6E32ECE7
:040A600000F0120090
:100A64006AC600F06BC601F0000E06016BBFFF0EF4
:100A7400026E036E003600900136023603360036ED
:100A8400009001360236033667510024F66E685131
:100A94000120F76E69510220F86E0900F5CF6CF65B
:100AA4000900F5CF6DF60900F5CF6EF60900F5CF14
:100AB4006FF66A516B1148E063C600F064C601F03A
:100AC40065C602F066C603F06CC604F06DC605F098
:100AD4006EC606F06FC607F00BDE010E6A5F000EED
:100AE4006B5B6AC604F06BC605F0000E6BBFFF0EAD
:100AF400066E076E0436049005360636073604364D
:100B0400049005360636073667510424F66E68519C
:100B14000520F76E69510620F86E0900F5CF04F040
:100B24000900F5CF05F00900F5CF06F00900F5CF6F
:100B340007F031EC01F000C06CF601C06DF602C0A4
:100B44006EF603C06FF6B5D76CC600F06DC601F043
:0A0B54006EC602F06FC603F0120037
:100B5E000B6A0350D8B4F5EF05F002500A6E028E00
:100B6E008E0E035E03AEF9EF05F0036C080E035C08
:100B7E00D8A0D4EF05F0036E013602C001F0026A70
:100B8E00080E035CD8A0D4EF05F0036E0136016A9F
:100B9E000350D8A4D890DEEF05F00350D8B4DEEFA2
:100BAE0005F0D89002320132032ED8EF05F00BBCBF
:100BBE0001A0EBEF05F0D8A0EBEF05F0012AD8B4B9
:100BCE00022A02BE08EF06F00AAE0EEF06F0021E73
:100BDE00011E012AD8B4022A0EEF06F0026A016A3B
:100BEE000EEF06F00B800BAE12EF06F0026A0AAEA5
:100BFE0012EF06F0FF0E026E016E0A36023212EF8F
:100C0E0006F0010E0C6E23EC01F014EF06F0000E50
:100C1E000C6E14EF06F0FF0E0C6E0150006E0250BB
:040C2E00016E120041
:100C32000450000A12E10550000A0FE10650000AB2
:100C42000CE10750000A09E1FF0E006EFF0E016E73
:100C52007F0E026EFF0E036E1200086A096A0750C9
:100C6200D8B4C4EF06F00350D8B4C8EF06F002506F
:100C720006180A6E028E068E0E6A02C008F001C0C5
:100C82000CF000C00DF004500D5E0550D8A0053CDC
:100C92000C5E0650D8A0063C085E086A0C6A0D6A13
:100CA200D8A05BEF06F0D89002320132003208324F
:100CB200010E0E6E0750035ED8A068EF06F07E0E9E
:100CC2000E240326D8B0CDEF06F06EEF06F07E0EAE
:100CD2000E240326D8A0D2EF06F0180E0B6E0D36A6
:100CE2000C3608360036013602360E360450005EE7
:100CF2000550D8A0053C015E0650D8A0063C025E15
:100D020006340E120EA089EF06F00D8094EF06F065
:100D1200045000260550D8B0053C01260650D8B034
:100D2200062802260D900B2E70EF06F0BAEF06F0A1
:100D3200D8900036013602360E360450005E055059
:100D4200D8A0053C015E0650D8A0063C025E0634DF
:100D52000E10010B0D26D8B00C2AD8B4082AD8A43C
:100D6200BAEF06F008320C320D32032AD8B4CDEFB6
:100D720006F00AAE089E0850026E0C50016E0D502D
:100D8200006ED5EF06F0010E44DDD5EF06F0020E3F
:100D92001AEC00F0D5EF06F0040E0EEC00F0D5EFE1
:0A0DA20006F0080E21EC00F012002C
:100DAC00630E046E060E056E030E0424E96E000E2F
:100DBC000520EA6E7E0EEE5C006E016A000E015A92
:100DCC0067C6E1FF68C6E2FF00C0E6FF01C0E6FFB0
:100DDC00030E0424E16E000E0520E26E7E0EE66E1C
:100DEC0063C600F064C601F065C602F066C603F087
:020DFC001200E3
:100DFE0000C008F00150006E016A026A036A0B6AB5
:100E0E000C6A016A026A036A960E036E0A6A00AEE3
:100E1E0017EF07F0081E001E082AD8B4002A0A8E03
:100E2E0000C001F008C000F0086A026A23DC12005C
:100E3E0066C600F0016A026A036AFF0E0016000E13
:100E4E00011600C06BF601C06CF67F0E005C026EE0
:100E5E00000E0158036E02C06BF603C06CF6800ED6
:100E6E000318006E800E005C02E1000E025C21E2AF
:100E7E00046A056A066A076A63C600F064C601F072
:100E8E0065C602F066C603F0C5DC010ED8B0000ED2
:100E9E00006E005209E0000E006E000E016E800E14
:100EAE00026E7F0E036E1200006A016A026A036A06
:100EBE0012000601000E006E6C51005C02E16B51D7
:100ECE00180809E263C600F064C601F065C602F0B8
:100EDE0066C603F0120063C600F064C601F065C674
:100EEE0002F066C603F0FDDC94DD00C067F601C0BB
:100EFE0068F602C069F603C06AF600C004F001C0CD
:100F0E0005F002C006F003C007F063C600F064C629
:100F1E0001F065C602F066C603F07CDC010ED8B0A7
:100F2E00000E006E005212E0000E046E000E056EF2
:100F3E00000E066E7F0E076E67C600F068C601F0E3
:100F4E0069C602F06AC603F062DC120067C600F0E2
:0E0F5E0068C601F069C602F06AC603F0120010
:100F6C00630E0601696F060E6A6F030E6925D96E52
:100F7C00000E6A21DA6EDE506725016E000E6821C4
:100F8C00026E01C067F602C068F6800E0218006E91
:100F9C00800E005C02E1000E015C05E2006A016A51
:100FAC00026A036A1200800E006E800E6819005CE3
:100FBC0002E16751FF0825E2046A056A066A076ABE
:100FCC0063C600F064C601F065C602F066C603F0A5
:100FDC0022DC010ED8B0000E006E005209E0FF0EAC
:100FEC00006EFF0E016EFF0E026EFF0E036E1200FE
:100FFC00FF0E006EFF0E016E7F0E026EFF0E036E73
:10100C001200030E6925E16E000E6A21E26E67C6BE
:10101C00E6FF63C600F064C601F065C602F066C662
:04102C0003F01200BB
:1010300003500718D8A42CEF08F002500618D8A4C3
:101040002CEF08F001500518D8A42CEF08F0005040
:0E1050000418D8B4D8841200D89412001200EC
:10105E005AC604F05BC605F05CC606F05DC607F026
:10106E00006A016A026A036A11EC04F0000ED8B03D
:10107E00010E006E005205E0006A016A026A036A00
:10108E00120006015AC663F65BC664F65CC665F6C8
:10109E005DC666F65E0E676F060E686F80DE000E2A
:1010AE00046E000E056E000E066E800E076E7AEC54
:1010BE0003F0000E046E000E056E000E066E7F0E1F
:1010CE00076E0EEC04F000C05AF601C05BF602C0CB
:1010DE005CF603C05DF6010E5E5F000E5F5B00C046
:1010EE0063F601C064F602C065F603C066F6320E02
:1010FE00676F260E686F000E696F080E6A6F000E1E
:10110E006B6FA9DC00C05AF601C05BF602C05CF63C
:10111E0003C05DF65EC600F05FC601F069DE180E14
:10112E00046E720E056E310E066E7E0E076E7AEC32
:10113E0003F05AC604F05BC605F05CC606F05DC649
:08114E0007F031EC01F0120082
:101156000601626B046A056A066A076A5AC600F0E7
:101166005BC601F05CC602F05DC603F011EC04F04C
:10117600010ED8B0000E006E005203E05C7F010E37
:10118600626F5AC600F05BC601F05CC602F05DC62F
:1011960003F0830E046EF90E056E220E066E7C0EAB
:1011A600076E7AEC03F000C05AF601C05BF602C087
:1011B6005CF603C05DF600C063F601C064F602C0CB
:1011C60065F603C066F638DE00C004F001C005F01F
:1011D60002C006F003C007F05AC600F05BC601F075
:1011E6005CC602F05DC603F00EEC04F0000E046E61
:1011F600000E056E000E066E810E076E7AEC03F089
:1012060000C05AF601C05BF602C05CF603C05DF68C
:1012160000C004F001C005F002C006F003C007F0EC
:10122600000E006E000E016E000E026E800E036E42
:1012360011EC04F0010ED8B0000E006E005220E052
:10124600000E046E000E056E000E066E800E076E12
:101256005AC600F05BC601F05CC602F05DC603F03C
:101266000EEC04F000C05AF601C05BF602C05CF654
:1012760003C05DF606016253010ED8A4000E626F2C
:101286005AC604F05BC605F05CC606F05DC607F0FC
:10129600000E006E000E016E000E026E7F0E036ED3
:1012A60011EC04F0010ED8B0000E006E00521AE0E8
:1012B6005AC604F05BC605F05CC606F05DC607F0CC
:1012C600000E006E000E016E000E026E800E036EA2
:1012D6000EEC04F000C05AF601C05BF602C05CF6E4
:1012E60003C05DF606015AC600F05BC601F05CC697
:1012F60002F05DC603F05AC604F05BC605F05CC694
:1013060006F05DC607F07AEC03F000C05EF601C099
:101316005FF602C060F603C061F600C063F601C066
:1013260064F602C065F603C066F6560E676F260EB3
:10133600686F000E696F040E6A6F000E6B6F32ECF9
:1013460005F05AC604F05BC605F05CC606F05DC63D
:1013560007F07AEC03F000C05AF601C05BF602C053
:101366005CF603C05DF65EC663F65FC664F660C6ED
:1013760065F661C666F66A0E676F260E686F000E22
:10138600696F030E6A6F000E6B6F32EC05F000C0DA
:1013960004F001C005F002C006F003C007F05AC60B
:1013A60000F05BC601F05CC602F05DC603F03EDCF1
:1013B60000C05AF601C05BF602C05CF603C05DF6DB
:1013C600060162530DE0000E5A19006E000E5B19FD
:1013D600016E800E5C19026E000E5D19036E12001E
:1013E6005AC600F05BC601F05CC602F05DC603F0AB
:0213F6001200E3
:1013F800046A056A066A076A5AC600F05BC601F005
:101408005CC602F05DC603F00FDE010ED8A4000E24
:10141800006E005209E0000E006E000E016E000E14
:10142800026E7F0E036E12005AC604F05BC605F00A
:101438005CC606F05DC607F0FC0E006ED40E016EA9
:10144800320E026E850E036E11EC04F0010ED8B058
:10145800000E006E005209E0FF0E006EFF0E016ED6
:101468007F0E026EFF0E036E12004F0E046EAC0E5E
:10147800056EAE0E066E850E076E5AC600F05BC688
:1014880001F05CC602F05DC603F011EC04F0010E39
:10149800D8B0000E006E005205E0006A016A026AC8
:1014A800036A1200046A056A066A076A5AC600F0E7
:1014B8005BC601F05CC602F05DC603F011EC04F0F7
:1014C800010ED8B0000E006E00C060F6005202E0B7
:1014D80006015C7F5AC600F05BC601F05CC602F0EC
:1014E8005DC603F03B0E046EAA0E056E380E066E3E
:1014F8007F0E076E7AEC03F000C05AF601C05BF667
:1015080002C05CF603C05DF600C063F601C064F675
:1015180002C065F603C066F68EDCAFEC05F000C0CD
:101528005EF601C05FF667DC00C004F001C005F09C
:1015380002C006F003C007F05AC600F05BC601F00F
:101548005CC602F05DC603F00EEC04F000C05AF66B
:1015580001C05BF602C05CF603C05DF600C063F62E
:1015680001C064F602C065F603C066F60A0E0601FD
:10157800676F260E686F000E696F090E6A6F000E9E
:101588006B6F32EC05F000C063F601C064F602C070
:1015980065F603C066F65EC667F65FC668F6E2DC07
:1015A80000C05AF601C05BF602C05CF603C05DF6E7
:1015B80060532FE0FF0E046EFF0E056E7F0E066E61
:1015C800FF0E076E5AC600F05BC601F05CC602F05B
:1015D8005DC603F029DD010ED8A4000E006E00528E
:1015E80005E0006A016A026A036A12005AC604F03A
:1015F8005BC605F05CC606F05DC607F0000E006E1F
:10160800000E016E000E026E7F0E036E19EC06F0DE
:1016180012005AC600F05BC601F05CC602F05DC657
:0416280003F01200B9
:10162C000050086E0150006E0250016E0350026EA5
:10163C00036A0B6A0C6A9E0E036E0A6A020E0C6E2B
:06164C0032EC00F0120078
:0C165200240E0D6E0D2EFED700001200BD
:10165E000B6A0C6A0A6A086A0350D8B4B7EF0BF02B
:10166E00028E9E0E035E03BE42EF0BF0D8B442EF25
:10167E000BF0A7EF0BF0036C080E035CD8A074EF11
:10168E000BF0036E083600C008F001C000F002C077
:10169E0001F0026A080E035CD8A074EF0BF0036E23
:1016AE00083600C008F001C000F0016A080E035CA5
:1016BE00D8A074EF0BF0036E083600C008F0006A75
:1016CE00080E035CD8A074EF0BF0036E0836086AA0
:1016DE000350D8A4D89080EF0BF00350D8B480EF0D
:1016EE000BF0D8900232013200320832032E78EF1E
:1016FE000BF00BBC08A091EF0BF0D8A091EF0BF004
:10170E00082AD8B4002AD8B4012AD8B4022A02BEB4
:10171E00BBEF0BF00AAEB7EF0BF0021E011E001E60
:10172E00081E082AD8B4002AD8B4012AD8B4022A2E
:10173E00B7EF0BF0026A016A006A086AB7EF0BF0A6
:10174E000B800BAEC1EF0BF0026A0AAEC1EF0BF0CD
:10175E00026E016E006E086E0A360232C1EF0BF099
:10176E00000E0C6AC2EF0BF0010E0C6E23EC01F0B2
:10177E00C2EF0BF0FF0E0250036E0150026E0050CE
:08178E00016E0850006E12000C
:1017960023D0030E066E000E076E49D0040E066EA9
:1017A600000E076E44D0050E066E000E076E3FD083
:1017B600060E066E000E076E3AD0070E066E000E77
:1017C600076E35D0080E066E000E076E30D0090E75
:1017D600066E000E076E2BD0000E06014E1902E1B2
:1017E600080E4D19D6E0000E4E1902E1100E4D19E5
:1017F600D5E0000E4E1902E1200E4D19D4E0000E80
:101806004E1902E1400E4D19D3E0000E4E1902E1C9
:10181600800E4D19D2E04E51010A02E1000E4D191B
:10182600D1E04E51020A02E1000E4D19D0E0026AE3
:10183600036A046A056A0750055C02E10650045C07
:1018460014E2023602900336010E4B15006E4CC6AA
:1018560001F0000E011600500226015003224C33FF
:101866004B334C9F044A052AE6D702C000F003C05A
:0418760001F012006B
:10187A000050086E0150006E016A026A036A0B6A20
:10188A000C6A960E036E0A6A00C001F008C000F0E6
:0A189A00086A026A41EC03F0120034
:1018A4000900F5CFE6FF0006FBE10106F9E11200AD
:1018B400C26A070EC012C08E4BC600F000360090FC
:1018C400003600900050C212C280C1DEC282C2A2A1
:1018D40001D0FDD7C4CF01F0006AC3500012000E3E
:0618E4000112C290120087
:1018EA000B6A0A6A096A00500402F4CF09F0F3CFBE
:1018FA0008F001500502F4CF0BF0F3CF0AF00050C4
:10190A000502F3500926F4500A22E86A0B22015014
:10191A000402F3500926F4500A22E86A0B2208C08E
:10192A0000F009C001F00AC002F00BC003F0120077
:10193A000601576B046A056A066A076A4BC600F015
:10194A004CC601F04DC602F04EC603F018EC08F082
:10195A00010ED8A4000E006E005205E0006A016A6A
:10196A00026A036A1200046A056A066A076A4FC6AF
:10197A0000F050C601F051C602F052C603F018EC4E
:10198A0008F0010ED8A4000E006E005209E0000E05
:10199A00006E000E016E000E026E7F0E036E1200C4
:1019AA00046A056A066A076A4BC600F04CC601F06B
:1019BA004DC602F04EC603F011EC04F0010ED8B089
:1019CA00000E006E00522BE04FC600F050C601F028
:1019DA0051C602F052C603F03DDE00C053F601C004
:1019EA0054F602C055F603C056F61BDE4FC604F085
:1019FA0050C605F051C606F052C607F018EC08F0BA
:101A0A00000ED8A4010E006E005205E0006A016AB9
:101A1A00026A036A1200010E5315576F4D7F4BC6B7
:101A2A005AF64CC65BF64DC65CF64EC65DF62FEC12
:101A3A0008F000C04BF601C04CF602C04DF603C0D8
:101A4A004EF64FC604F050C605F051C606F052C60F
:101A5A0007F07AEC03F000C04BF601C04CF602C066
:101A6A004DF603C04EF600C05AF601C05BF602C03E
:101A7A005CF603C05DF6BBDC00C04BF601C04CF659
:101A8A0002C04DF603C04EF6060157530DE0000E94
:101A9A004B19006E000E4C19016E800E4D19026E24
:101AAA00000E4E19036E12004BC600F04CC601F030
:0A1ABA004DC602F04EC603F0120004
:101AC400086A096A100E0C6E01340836093604508F
:101AD400085E0550D8A0053C095ED8B007D0045074
:101AE40008260550D8B0053C0926D89000360136A2
:061AF4000C2EEAD71200DF
:101AFA004BC604F04CC605F04DC606F04EC607F0BC
:101B0A00DB0E006E0F0E016E490E026E800E036E22
:101B1A0011EC04F0010ED8B0000E006E00521DE068
:101B2A00E40E046ECB0E056E160E066E810E076E5F
:101B3A004BC600F04CC601F04DC602F04EC603F08B
:101B4A000EEC04F000C05AF601C05BF602C05CF667
:101B5A0003C05DF6ABEC08F012004BC600F04CC6B1
:101B6A0001F04DC602F04EC603F0DB0E046E0F0EF6
:101B7A00056E490E066E7F0E076E31EC01F000C04D
:101B8A005AF601C05BF602C05CF603C05DF6ABEC28
:041B9A0008F012003D
:101B9E004BC604F04CC605F04DC606F04EC607F017
:101BAE00006A016A026A036A11EC04F0000ED8B0F2
:101BBE00010E006E005205E0006A016A026A036AB5
:101BCE0012004BC64FF64CC650F64DC651F64EC6D9
:101BDE0052F6000E046E000E056E000E066E7F0E9F
:101BEE00076E4BC600F04CC601F04DC602F04EC655
:101BFE0003F011EC04F0010ED8B0000E006E00528E
:101C0E001AE04FC604F050C605F051C606F052C693
:101C1E0007F0000E006E000E016E000E026E7F0EBB
:101C2E00036E19EC06F000C04FF601C050F602C06C
:101C3E0051F603C052F64FC663F650C664F651C64F
:101C4E0065F652C666F6580E0601676F060E686F89
:101C5E00D6EC06F000C04FF601C050F602C051F6A9
:101C6E0003C052F600C063F601C064F602C065F60A
:101C7E0003C066F658C667F659C668F6683367330A
:101C8E00689F68BD688FB6EC07F000C04FF601C0C4
:101C9E0050F602C051F603C052F6000E046E000E4E
:101CAE00056E000E066E7F0E076E4BC600F04CC61C
:101CBE0001F04DC602F04EC603F011EC04F0010E19
:101CCE00D8B0000E006E00521AE04FC604F050C697
:101CDE0005F051C606F052C607F0000E006E000E5B
:101CEE00016E000E026E7F0E036E19EC06F000C040
:101CFE004FF601C050F602C051F603C052F6140E54
:101D0E000601576F4FC604F050C605F051C606F0D7
:101D1E0052C607F04BC600F04CC601F04DC602F09D
:101D2E004EC603F019EC06F04FC604F050C605F08F
:101D3E0051C606F052C607F031EC01F0000E046EEB
:101D4E00000E056E000E066E800E076E19EC06F084
:101D5E0000C053F601C054F602C055F603C056F645
:101D6E004FC604F050C605F051C606F052C607F035
:101D7E0018EC08F0010ED8A4000E006E005201E01F
:101D8E000CD053C64FF654C650F655C651F656C62D
:101D9E0052F6060157075753B5E14FC600F050C62D
:0C1DAE0001F051C602F052C603F0120012
:101DBA00DB0E06013D6F0F0E3E6F490E3F6F7A0E26
:101DCA00406F0E0EC16E010E926E936A806A816A2E
:101DDA00FF0E816E2D6B2E6B000E2E5D02E1800EC2
:101DEA002D5D29E22DC600F02EC601F000360090C6
:101DFA000136003600900136150E0024416F020E9E
:101E0A000120426F4B6B51DD006A016A31DD41C628
:101E1A00E1FF42C6E2FF00C0E6FF01C0E6FF02C0E2
:101E2A00E6FF03C0E6FF530E0D6E0D2EFED7060128
:101E3A002D4B2E2BD1D7816A2D6B2E6B000E2E5D6A
:101E4A0002E1800E2D5D48E22DC64BF62EC64CF6F9
:101E5A00800E4D6F000E4E6F99DC00C002F001C07B
:101E6A0003F0023602900336023602900336150E4C
:101E7A000224E16E000E0320E26E2DC600F02EC68B
:101E8A0001F0003600900136003600900136150E3A
:101E9A000024E96E020E0120EA6EEECFE6FFEECFD5
:101EAA00E6FFEECFE6FFEECFE6FF2DC600F02EC628
:101EBA0001F0003600900136003600900136150E0A
:101ECA000024E16E020E0120E26EE66AE66AE66A24
:101EDA00E66A2D4B2E2BB2D72D6B2E6B000E2E5D84
:101EEA0002E1400E2D5D6DE22DC600F02EC601F016
:101EFA00003600900136003600900136150E002497
:101F0A00416F040E0120426F2DC600F02EC601F06B
:101F1A00AFDC3DC604F03EC605F03FC606F040C63B
:101F2A0007F07AEC03F000C04BF601C04CF602C091
:101F3A004DF603C04EF6DCDD41C6E1FF42C6E2FFC4
:101F4A0000C0E6FF01C0E6FF02C0E6FF03C0E6FFED
:101F5A002DC600F02EC601F000360090013600367C
:101F6A0000900136150E0024416F050E0120426FC4
:101F7A002DC600F02EC601F07BDC3DC604F03EC63D
:101F8A0005F03FC606F040C607F07AEC03F000C041
:101F9A005AF601C05BF602C05CF603C05DF6ABEC14
:101FAA0008F0027E41C6E1FF42C6E2FF00C0E6FF3A
:101FBA0001C0E6FF02C0E6FF03C0E6FF2D4B2E2B51
:101FCA008DD7800E356F000E366F000E365D02E13A
:101FDA00020E355DD8A01AD235C604F036C605F011
:101FEA00800E006E000E016E68DD00C037F601C07B
:101FFA0038F62F6B306B3851305D02E137512F5D67
:10200A00D8B000D235C631F636C632F6323331335D
:10201A00329F010E315F000E325B37C633F638C687
:10202A0034F63337339134372FC600F030C601F017
:10203A0035C604F036C605F053DC00C039F601C0D7
:10204A003AF63A3339333A9F2D6B2E6B2E51325D65
:10205A0002E12D51315DD8A0D2D12DC600F02EC695
:10206A0001F033C604F034C605F03ADC00502F25DF
:10207A00036E01503021046E03C03BF604C03CF6E7
:10208A0003C000F004C001F00036009001360036AB
:10209A0000900136150E0024E96E000E0120EA6E4A
:1020AA00EECF15F6EECF16F6EECF17F6EECF18F600
:1020BA00150E0024E96E020E0120EA6EEECF19F623
:1020CA00EECF1AF6EECF1BF6EECF1CF637510326EB
:1020DA003851042203C000F004C001F00036009019
:1020EA000136003600900136150E0024E96E000E06
:1020FA000120EA6EEECF04F0EECF05F0EECF06F047
:10210A00EECF07F004C01DF605C01EF606C01FF686
:10211A0007C020F6150E0024E96E020E0120EA6EB1
:10212A00EECF21F6EECF22F6EECF23F6EECF24F64F
:10213A0039C641F63AC642F64137419142374137EC
:10214A0041914237150E4125496F040E42214A6FCB
:10215A0049C6E9FF4AC6EAFFEECF00F0EECF01F02A
:10216A00EECF02F0EECF03F07AEC03F000C045F6B2
:10217A0001C046F602C047F603C048F6150E4127CD
:10218A00050E422341C6E9FF42C6EAFFEECF00F040
:10219A00EECF01F0EECF02F0EECF03F021C604F04D
:1021AA0022C605F023C606F024C607F07AEC03F02F
:1021BA0000C004F001C005F002C006F003C007F039
:1021CA0045C600F046C601F047C602F048C603F00D
:1021DA000EEC04F000C025F601C026F602C027F670
:1021EA0003C028F641C6E9FF42C6EAFFEECF00F077
:1021FA00EECF01F0EECF02F0EECF03F01DC604F0F1
:10220A001EC605F01FC606F020C607F07AEC03F0DA
:10221A0000C041F601C042F602C043F603C044F6CC
:10222A0049C6E9FF4AC6EAFFEECF00F0EECF01F059
:10223A00EECF02F0EECF03F021C604F022C605F07D
:10224A0023C606F024C607F07AEC03F041C604F070
:10225A0042C605F043C606F044C607F031EC01F069
:10226A0000C029F601C02AF602C02BF603C02CF6DC
:10227A003BC600F03CC601F000360090013600363D
:10228A0000900136150E0024416F000E0120426FA6
:10229A0015C600F016C601F017C602F018C603F0FC
:1022AA0025C604F026C605F027C606F028C607F09C
:1022BA0031EC01F041C6E1FF42C6E2FF00C0E6FF91
:1022CA0001C0E6FF02C0E6FF03C0E6FF3BC600F01E
:1022DA003CC601F000360090013600360090013607
:1022EA00150E0024416F020E0120426F19C600F03C
:1022FA001AC601F01BC602F01CC603F029C604F078
:10230A002AC605F02BC606F02CC607F031EC01F000
:10231A0041C6E1FF42C6E2FF00C0E6FF01C0E6FF98
:10232A0002C0E6FF03C0E6FF3B513725036E3C516E
:10233A003821046E03C000F004C001F0003600909A
:10234A000136003600900136150E0024416F000E4A
:10235A000120426F25C604F026C605F027C606F0FE
:10236A0028C607F015C600F016C601F017C602F017
:10237A0018C603F00EEC04F041C6E1FF42C6E2FFC4
:10238A0000C0E6FF01C0E6FF02C0E6FF03C0E6FFA9
:10239A003B513725036E3C513821046E03C000F0CF
:1023AA0004C001F000360090013600360090013674
:1023BA00150E0024416F020E0120426F29C604F057
:1023CA002AC605F02BC606F02CC607F019C600F07F
:1023DA001AC601F01BC602F01CC603F00EEC04F08C
:1023EA0041C6E1FF42C6E2FF00C0E6FF01C0E6FFC8
:1023FA0002C0E6FF03C0E6FF2D4B2E2B27D62F4B3C
:10240A00302BF9D536333533369FDFD52D6B2E6B0E
:10241A00000E2E5D02E1800E2D5DD8B0EED02DC6E5
:10242A0000F02EC601F0003600900136003600900A
:10243A000136150E0024416F000E0120426F41C67D
:10244A00E9FF42C6EAFFEECF00F0EECF01F0EECF91
:10245A0002F0EECF03F0000E046E000E056E000EC1
:10246A00066E800E076E7AEC03F0000E046E000E04
:10247A00056E000E066E860E076E19EC06F041C652
:10248A00E1FF42C6E2FF00C0E6FF01C0E6FF02C06C
:10249A00E6FF03C0E6FF2DC600F02EC601F00036A7
:1024AA0000900136003600900136150E0024060110
:1024BA00416F020E0120426F41C6E9FF42C6EAFFA0
:1024CA00EECF00F0EECF01F0EECF02F0EECF03F048
:1024DA00000E046E000E056E000E066E800E076E6C
:1024EA007AEC03F0000E046E000E056E000E066E06
:1024FA00860E076E19EC06F041C6E1FF42C6E2FFFE
:10250A0000C0E6FF01C0E6FF02C0E6FF03C0E6FF27
:10251A002DC600F02EC601F00036009001360036B6
:10252A0000900136150E00240601456F000E0120A9
:10253A00466F45C6E9FF46C6EAFFEECF4BF6EECF39
:10254A004CF6EECF4DF6EECF4EF6000E4F6F000E64
:10255A00506F000E516F800E526F9DEC0CF000C050
:10256A0041F601C042F602C043F603C044F62DC646
:10257A0000F02EC601F000360090013600360090B9
:10258A000136150E0024E96E020E0120EA6EEECF26
:10259A004BF6EECF4CF6EECF4DF6EECF4EF6000EE2
:1025AA004F6F000E506F000E516F800E526F9DECF0
:1025BA000CF041C604F042C605F043C606F044C614
:1025CA0007F031EC01F000C04BF601C04CF602C036
:1025DA004DF603C04EF6CFEC0DF045C6E1FF46C6F8
:1025EA00E2FF00C0E6FF01C0E6FF02C0E6FF03C04B
:1025FA00E6FF06012D4B2E2B0BD7EDEF0EF0FFD782
:10260A000000007F1872317EF0FD757C4758637AAE
:10261A0058951D7882C42E75A8782172EF93006FA1
:08262A00A092276B46561568CB
:1026320000000000C4FF7F7E80EFFF7D90E1297DD6
:10264200EC82F67C82AD2B7C0E3CC37B87D1137A65
:042652004178D37781
:10265600ECF34A903595958F17C15C8BFDDBED86C3
:0426660072B3338098
:10266A002B3401907F9D308BE7FF59850000007F56
:020000040030CA
:0E000000240E3F1EFF0181FF0FC00FE00F40D6
:00000001FF
